:020000040000FA
:1000000060110020750100000000000000000000E9
:1000100000000000000000000000000000000000E0
:1000200000000000000000000000000000000000D0
:1000300000000000000000000000000000000000C0
:100040007F010000CF010000470200009301000083
:100050000000000000000000A7010000BB0100003C
:100060001F02000033020000000000005B020000DD
:10007000E3010000F70100000B0200000000000097
:1000800000F002F800F04BF80CA030C80838241833
:100090002D18A246671EAB4654465D46AC4201D1C0
:1000A00000F03DF87E460F3E0FCCB64601263342A7
:1000B00000D0FB1AA246AB46334318474424000045
:1000C00064240000103A02D378C878C1FAD85207E5
:1000D00001D330C830C101D504680C6070470000FE
:1000E0000023002400250026103A01D378C1FBD854
:1000F000520700D330C100D50B60704710B564299A
:1001000002D100F00FF910BD782902D100F040F9BA
:1001100010BD002010BD1FB51FBD10B510BD00F0F3
:100120000DFB1146FFF7F7FF01F030F800F025FB5B
:1001300003B4FFF7F2FF03BC00F090FC70B5054676
:100140000C46164602E00FCC0FC5103E102EFAD218
:10015000082E02D303CC03C5083E042E07D301CCDE
:1001600001C5361F03E021782970641C6D1C761EC2
:10017000F9D270BD4149424808604248004701B584
:10018000012080F3108802F051F9002080F31088DC
:1001900001BD01B5012080F3108800F06BFC002048
:1001A00080F3108801BD01B5012080F3108801F0B3
:1001B000E7FB002080F3108801BD01B5012080F32A
:1001C000108801F041FE002080F3108801BD01B5C8
:1001D000012080F3108800F043FE002080F3108897
:1001E00001BD01B5012080F3108800F053FE00200E
:1001F00080F3108801BD01B5012080F3108800F064
:100200004DFE002080F3108801BD01B5012080F370
:10021000108800F00BFE002080F3108801BD01B5AE
:10022000012080F3108801F0F5FC002080F3108895
:1002300001BD01B5012080F3108801F089FC002088
:1002400080F3108801BD01B5012080F3108800F013
:10025000DFFF002080F3108801BD01B5012080F38D
:10026000108800F0F7FF002080F3108801BD000027
:1002700005480649064A074B7047000000E100E0C8
:1002800000000000810000006005002060110020D7
:100290006009002060090020704700000FB4054984
:1002A00010B503AA029800F009FA10BC08BC04B00B
:1002B000184700008C000020F8B50E4604460020C8
:1002C00020622046E1688847002829D0252802D0EE
:1002D0006268A16820E0E1682046002788470500A1
:1002E0001ED028464138192802D80127FF022035A0
:1002F0003246204627602946FFF700FF002808D035
:10030000012804D0F61DF608F6000836D9E7361D98
:10031000D7E762682846A1689047206A401CCFE76B
:10032000206AF8BDF7B5002575291068009914A654
:1003300011D0C046C046002802DA404211A608E0AB
:10034000009909688A0701D50FA602E0490704D57C
:100350000EA6012501E0C046C046009F00242437B8
:1003600004E000F0BFF930313955641C0028F8D1A1
:100370002B4632462146009800F048F9FEBD0000A9
:10038000000000002D0000002B00000020000000F5
:1003900070B504460D4621461068C046C046218807
:1003A000090502D50F4A7A4402E00E4A7A440E3219
:1003B00023460021243305E006070009360F965D29
:1003C0005E54491C0028F7D120780023000705D58A
:1003D000702D03D0002901D002231132204600F0F5
:1003E00015F970BD2E210000F8B5042A2CD383071F
:1003F00012D00B78491C0370401C521E83070BD08F
:100400000B78491C0370401C521E830704D00B78E4
:10041000491C0370401C521E8B079B0F05D0C91A44
:10042000DF002023DE1B08C90AE0FFF787FEF8BDC6
:100430001D4608C9FD401C46B4402C4310C0121F85
:10044000042AF5D2F308C91A521EF0D40B78491CBD
:100450000370401C521EEAD40B78491C0370401CE8
:10046000012AE4D409780170F8BD01E004C0091F35
:100470000429FBD28B0701D50280801CC90700D05C
:100480000270704700290BD0C30702D00270401CD5
:10049000491E022904D3830702D50280801C891ECD
:1004A000E3E70022EEE70022DFE7002203098B42A8
:1004B0002CD3030A8B4211D300239C464EE0034603
:1004C0000B433CD4002243088B4231D303098B42B7
:1004D0001CD3030A8B4201D394463FE0C3098B42ED
:1004E00001D3CB01C01A524183098B4201D38B0146
:1004F000C01A524143098B4201D34B01C01A5241E9
:1005000003098B4201D30B01C01A5241C3088B422D
:1005100001D3CB00C01A524183088B4201D38B0018
:10052000C01A524143088B4201D34B00C01A5241BA
:10053000411A00D201465241104670475DE0CA0F91
:1005400000D04942031000D34042534000229C4651
:1005500003098B422DD3030A8B4212D3FC2289015B
:1005600012BA030A8B420CD3890192118B4208D331
:10057000890192118B4204D389013AD0921100E093
:100580008909C3098B4201D3CB01C01A52418309A7
:100590008B4201D38B01C01A524143098B4201D3D4
:1005A0004B01C01A524103098B4201D30B01C01AFF
:1005B0005241C3088B4201D3CB00C01A5241830879
:1005C0008B4201D38B00C01A5241D9D243088B42CF
:1005D00001D34B00C01A5241411A00D20146634672
:1005E00052415B10104601D34042002B00D54942D6
:1005F000704763465B1000D3404201B50020C046FF
:10060000C04602BD7047704770477047FFB504464B
:100610000D4681B0243000902168880604D5102250
:10062000E0699143216000E00120A84201DD471B01
:1006300000E000270498A1697A191018081AA0612F
:100640002078C00602D42046C046C046002608E0F6
:1006500003986268A168805D9047206A401C761C00
:10066000206204988642F3DB2078C0060AD5204633
:10067000C046C04606E06268A16830209047206A04
:10068000401C206238467F1E0028F4DC07E00098FA
:100690006268A168405D9047206A401C206228463D
:1006A0006D1E0028F3DC2046C046C04620780006B8
:1006B00002D5022005B0F0BD0120FBE7084B70B564
:1006C0000D467B4400F027F80446284600F000FC65
:1006D000002802D00020C04370BD204670BD00003D
:1006E0008508000001468008081A02091018020A4D
:1006F0001018020C1018C008820012185200891A33
:1007000001E0401C0A390A29FBD2704701694A1CE2
:1007100002610878704700B58FB002910021059101
:100720000549019379440391114604906846FFF707
:10073000C3FD0FB000BD0000E5FFFFFF754600F0F0
:1007400025F8AE46050069465346C008C0008546F8
:1007500018B020B5FFF78CFD60BC00274908B646ED
:100760000026C0C5C0C5C0C5C0C5C0C5C0C5C0C5C0
:10077000C0C5403D49008D46704710B50446C0468F
:10078000C0462046FFF7D4FC10BD0000004870476B
:10079000F4040020FFB505460E46174600240FE07E
:1007A00028462041C007C00F002804D0E01DFE30BD
:1007B00001F0CAFD03E0E01DFE3000F0ABFA641C5E
:1007C000012CEDDD002411E030462041C007C00FB0
:1007D000002805D02046FF30083001F0B5FD04E0C8
:1007E0002046FF30083000F095FA641C012CEBDD48
:1007F000002411E038462041C007C00F002805D072
:100800002046FF300A3001F09FFD04E02046FF3013
:100810000A3000F07FFA641C012CEBDD002411E0AB
:1008200003982041C007C00F002805D02046FF30A4
:100830000C3001F089FD04E02046FF300C3000F060
:1008400069FA641C012CEBDDFFBD000030B589B0F6
:10085000054620220D4901A8FFF770FC002411E095
:100860002846E040C007C00F002805D0610001AA5B
:10087000505A01F069FD04E0610001AA505A00F0ED
:1008800049FA641C0F2CEBD909B030BDB824000024
:10089000FFB505460E46174600240FE028462041C6
:1008A000C007C00F002804D02046F53001F04CFDF1
:1008B00003E02046F53000F02DFA641C032CEDDD3A
:1008C00000240FE030462041C007C00F002804D0AC
:1008D0002046F93001F038FD03E02046F93000F001
:1008E00019FA641C032CEDDD00240FE0384620418A
:1008F000C007C00F002804D02046FD3001F024FDC1
:1009000003E02046FD3000F005FA641C032CEDDD09
:1009100000240FE003982041C007C00F002804D036
:10092000E01DFA3001F010FD03E0E01DFA3000F0A8
:10093000F1F9641C032CEDDDFFBD000030B589B07A
:10094000054620220D4901A8FFF7F8FB002411E01D
:100950002846E040C007C00F002805D0610001AA6A
:10096000505A00F0D7F904E0610001AA505A01F092
:10097000EBFC641C0F2CEBD909B030BD98240000AF
:10098000F7B584B00546E806C00E03900598C0068A
:10099000C00E02900698C006C00E0190039800F0A9
:1009A0009AFA0090029800F096FA0646019800F034
:1009B00092FA04460023002700BF00BF0098009071
:1009C0007820204040020343F00003430098C00811
:1009D000034380202040C0090743034803600348C5
:1009E000076007B0F0BD000000001C52000020525C
:1009F000F0B585B0054600260027172003908C200F
:100A0000029028460299FFF75AFD1330C0B20090B9
:100A100028460299FFF753FD0D4628460399FFF734
:100A20004EFD41004018C019C0B2019028460399FC
:100A3000FFF745FD022800DB00BF28460399FFF7BA
:100A40003EFD8819C4B20F2C00DD641C22460199BA
:100A50000098FFF795FF05B0F0BD000002A0FFF77A
:100A60001DFC00BFFEE700000A5445535420444FCC
:100A70004E450A0010B502A0FFF710FC10BD0000A3
:100A800061646320696E746572727570742074722B
:100A9000696767657265640D0A00000028200249D5
:100AA00008602020086070470000585210B50021EF
:100AB0000022252126E0002221E08B00134CE35880
:100AC000012494402340002B01D1212000E020206C
:100AD0000F4B186002240346A34318460C4B1860C2
:100AE000042318430A4B186004240346A343184602
:100AF000074B186002231843054B1860521C202A2C
:100B0000DBDB491E0029D6DA10BD000028040020D6
:100B1000000058521CB521A0FFF7C0FB00F06AFA94
:100B200022A0FFF7BBFB27A0FFF7B8FB2D48816B86
:100B3000002000F001F904462A48C06BA04203D10E
:100B400029A0FFF7ABFB04E02AA0FFF7A7FB00BF3B
:100B5000FEE7FF20374908600F2088610020C86148
:100B600000F00EF900F0EAFA01F054FC01F05CF933
:100B700000F0DEFD684600F04FF92FA0FFF78EFB76
:100B800000F08CFF00F046FB00BF00F04BFB00289C
:100B9000FBD031A0FFF782FB1CBD0000496E6974D9
:100BA00069616C697A696E672E2E2E000D0A2D2DF3
:100BB0002D2D2D2D2D2D2D2D2D2D2D2D2D2D2D2D65
:100BC0002D0D0A0056616C69646174696E6720704E
:100BD000726F6772616D20696E746567726974798E
:100BE0002E2E2E00C0FF0000435243204F4B0D0A13
:100BF000000000000D0A50726F6772616D6D696EC2
:100C000067204572726F72202D2043524320444F5B
:100C10004553204E4F54204D41544348202D2048E9
:100C2000616C74696E6720457865637574696F6E71
:100C30000D0A000000E400E043616C6962726174B7
:100C4000696E67206672657175656E636965732E7E
:100C50002E2E0D0A0000000043616C20636F6D7042
:100C60006C6574650D0A0000002001E0411C88B22B
:100C70000F28FBDB704700007CB506461D488078D6
:100C8000401C1C4988700B211B48FFF70AFC1A48BE
:100C90000F30411E831E0B2200910190011F0F385F
:100CA00000F022FD01251448401E007B0B2801DDC9
:100CB00000250CE0012407E00F48005DA04201D0B0
:100CC000002503E0601CC4B20A2CF5DB00BF0A4813
:100CD000401E40780849491E4873002D03D001206A
:100CE000087000F00DFA00F0D9FE00F0F7FE00F0F9
:100CF00039FA7CBD000000209500002010B50446A4
:100D000000F03AFA02484078401C0149487010BD92
:100D10000000002010B541098A00064B9A584B018B
:100D2000C41A0123DB07E3409A438B00014CE250D5
:100D300010BD000028040020F3B500256C1E16E04D
:100D40000098465D304600F0C5FF064600270BE0E0
:100D500020467040002804DA6000084948400446F4
:100D600000E0640076007F1C072FF1DD6D1C019808
:100D70008542E5D3E04300F0ADFFFCBDB71DC104E3
:100D800003480068000B0003014908607047000039
:100D900000000453034800680421884301490860A7
:100DA0007047000000000453034800680421084312
:100DB00001490860704700000000045303480068C0
:100DC00040210843014908607047000000000453B7
:100DD00070B50346002400200325AD021D402C0100
:100DE0000F252D031D402D0B28433F252D011D40B0
:100DF000284395022843CD0228431D072D0C284384
:100E0000E543034E3560C543024E356070BD0000BA
:100E1000000014520000185210B50446082202497E
:100E20002046FFF7E1FA10BD5F24000010B502A0D4
:100E3000FFF734FA10BD000045787465726E616C7E
:100E400020496E74657272757074204750494F3135
:100E500030207472696767657265640D0A0000006E
:100E600010B502A0FFF71AFA10BD000045787465AE
:100E7000726E616C20496E74657272757074204771
:100E800050494F33207472696767657265640D0A53
:100E90000000000010B500F0DDF910BD10B502A093
:100EA000FFF7FCF910BD000045787465726E616C47
:100EB00020496E74657272757074204750494F39BD
:100EC000207472696767657265640D0A000000002E
:100ED000014600207047F021014009110207120E5F
:100EE00011430846CC210140891033220240920070
:100EF00011430846AA2101404910552202405200E0
:100F000011430846704701460020CA07120E1043DD
:100F100002220A405201104304220A40D200104328
:100F200008220A405200104310220A40520810437F
:100F300020220A40D208104340220A40520910439E
:100F400080220A40D2091043704710B503460C4670
:100F5000184601F067FA10BD00B5FF20F630FFF724
:100F6000D9FEFF20F730FFF7D5FEFF20F830FFF75E
:100F7000D1FEFF20F930FFF7CDFEFF20FA3001F05F
:100F8000E3F9FF20FB30FFF7C5FEFF20FC3001F046
:100F9000DBF9FF20FD30FFF7BDFEFF20FE3001F042
:100FA000D3F9FF20FF3001F0CFF90F4801F0CCF961
:100FB0000120400201F0C8F90B48801CFFF7AAFE8F
:100FC0000948C01CFFF7A6FE0748001D01F0BCF948
:100FD0008120800001F0B8F900200449086004482D
:100FE00001F0B2F900BD0000FF010000000028522E
:100FF0009203000038B500F0CBFE00F019F900F0C4
:1010000097FB00F011FFFFF7A7FF0023012219460D
:101010001846FFF7BFFB0623002219461846FFF7C4
:1010200037FCFF200130FFF711FC3148FFF786FC49
:10103000304801F089F9304AD16A106B01F096F915
:101040002C48001D01F080F92C4801F07DF9312079
:1010500001F07AF9302001F077F92F20FFF75AFEDE
:101060002E2001F071F92D20FFF754FE2C2001F005
:101070006BF92B2001F068F92A2001F065F91D4871
:10108000093001F061F91D48463001F05DF9292071
:1010900001F05AF9022403E0204601F055F9641CDE
:1010A000092CF9DB00F09AFB00F048FC124A916C25
:1010B000506C002201F012F80F48C06B00900E48EF
:1010C000836B1F21426B084600F08EFF09482138D0
:1010D00001F03AF909489130FFF78AFC7D200001C0
:1010E00000F068FBFFF7E2FCFFF7D8FC38BD00001A
:1010F000FFFF00007B040000A8040020290200007C
:10110000034800680121C90348400149086070474D
:101110000000045303480068012109038843014982
:101120000860704700000453034800680121090368
:1011300008430149086070470000045303480068F1
:101140000F210903884301490860704700000453D8
:1011500003480068012149030843014908607047BA
:1011600000000453034800680121890388430149B2
:101170000860704700000453034800680121890398
:1011800008430149086070470000045310B500F09F
:1011900001F810BD1D211648FFF783F9FFF7BAFCCF
:1011A000144800F0CFFC144800F0A6FC00F06EFCE0
:1011B00002210B2000F0A6FC00F070FC00F08EFC79
:1011C00014E000200A49087001E0FFF74DFD0848CF
:1011D00000780028F9D0FFF7A7FF0548C378827888
:1011E000417806A0FFF75AF8FFF794FFE9E70000FF
:1011F00094000020FD0C0000790C00007061636B0E
:1012000065743A2025642025642025640D0A0000B9
:10121000704700000320C0020149086070470000C9
:1012200000E100E001484078704700000804002019
:1012300010B520210448FFF736F9044802498861B7
:101240000348C86110BD00000804002094D10300C9
:10125000BA020000F0B593B000F070FD054600F052
:1012600067FD0D9000F082FD074600F085FD0C90B3
:1012700000F088FD0B9000F067FD0A9000F06AFD19
:10128000099000F06DFD08907F2029214906086033
:1012900082480078401C8149087029204006066871
:1012A0007F480068129012980004801910907D48C1
:1012B00006687D48006812901298000480190F900B
:1012C0007A4806687A4800681290129800048419D7
:1012D00078480668784800681290129800048019CF
:1012E00011907648066876480068129012980004BB
:1012F00080190E9000202921490608607148086075
:101300006648007802287DDD6F490F9888420AD22E
:10131000002D07D10D98401E0D900A2503205F492E
:10132000087000E06D1E69490F9888420AD91F2D88
:1013300007D10D98401C0D901425032057490870C3
:1013400000E06D1C29460D9801F010F80D9800F092
:1013500041FD284600F044FD5048806911998842BB
:1013600004D24E48C069401E4C49C8614B48806950
:1013700001461198814204D94848C069401C474938
:10138000C8614649C869FFF733FB5148844201D917
:101390007F1C0DE04F48844203D90C98401C0C90F0
:1013A00006E04C484138844202D90B98401C0B900F
:1013B0004948844201D27F1E0EE04648A03884424C
:1013C00003D20C98401E0C9006E042485F388442DD
:1013D00002D20B98401E0B900B9800903A461F21AA
:1013E00008460C9B00F000FE384600F00BFD0C9800
:1013F00000F00EFD0B9800F011FD38490E98884260
:1014000004D900E018E00898401C089034490E9870
:10141000884202D20898401E089000220899099834
:1014200000F05CFE099800F0E1FC089800F0E4FC94
:10143000FFF73CFBFFF732FB184A0E990898D26978
:10144000119B03930492059106900C990B982346E7
:101450002A4600970191029022A00F99FEF71EFFE5
:101460000E480078192816D10320C0022A490860C6
:1014700000200A490870012048701098486008460A
:1014800084600E98C860119808610F984861002028
:1014900029214906086013B0F0BD000008040020AF
:1014A00000000452000010520000145200001852B4
:1014B00000001C520000285200002C520000305244
:1014C00000003452FF3F0000C8781E0038901E0014
:1014D000980F0300900D0300E80A0300786F1800CE
:1014E0008864180048463D25642D2564202020325C
:1014F0004D3D25642D25642C25642C256420202059
:101500004C433D25642D256420202049463D25641B
:101510002D25640D0A00000080E100E0002824D1A0
:101520007049C96F042211436E4AD1671146C96FD1
:10153000022291436B4AD16711468031096801222A
:10154000D2071143674A803211606649C96F490862
:101550004900803AD1671146803109680722120795
:101560001143604A80321160BAE0012822D15D49FE
:10157000C96F022211435B4AD1671146C96F042229
:101580009143584AD167114680310968C207114317
:10159000544A803211605349C96F8143803AD16700
:1015A0001146803109680722120711434D4A8032E3
:1015B000116095E0022823D14A49C96F04221143E2
:1015C000484AD1671146C96F02229143454AD16703
:1015D0001146803109684A005208424980310A6048
:1015E0008039C96F012211433E4AD16711468031CB
:1015F00009680722120711433A4A803211606FE0EE
:10160000032823D13749C96F04221143354AD167D2
:101610001146C96F02229143324AD1671146803187
:101620000968C20711432F4A803211602D49C96FE2
:1016300049084900803AD167114680310968012282
:1016400092079143274A8032116049E0042822D151
:101650002449C96F04221143224AD1671146C96F38
:10166000022291431F4AD16711468031096842071F
:1016700011431C4A803211601A49C96F4908490058
:10168000803AD167114680310968C2069143154AF4
:101690008032116024E0052822D11249C96F04224A
:1016A0001143104AD1671146C96F022291430D4A76
:1016B000D167114680310968C2071143094A803257
:1016C00011600849C96F49084900803AD16711463D
:1016D00080310968032252079143024A8032116027
:1016E0007047000028040020FFB581B00C46154665
:1016F0001E460A9F0D48817A0B98017000F0E2FAAD
:10170000553840B2307000F0D7FA3870074880384A
:10171000007A20702078A84205DC227803497739C6
:101720000198FEF761FE05B0F0BD0000C001002089
:1017300010B5FF2191311148FEF7B5FE104911484F
:10174000C164C91FC16010480078C206D20E0F489C
:101750000078C106C90E0EA0FEF7A0FD00210948C1
:1017600001724020124908601E20890548611F202F
:10177000086201210348017210BD0000C000002072
:10178000C3020000C00100206C0000204C000020BB
:1017900072782073657474696E672025642074788C
:1017A0002073657474696E672025640D0A0000005B
:1017B00000E100E010B5044600213F2000F060FC8D
:1017C0000420FFF7ABFE01221146FF20E130FFF7B6
:1017D000FFFAFD20800000F0B7FD10BDF8B5464CC3
:1017E000650D4648006A2040444908620846C06BBF
:1017F0002840C8630846006A4149A14308433F495D
:10180000086240484862404888624048C862404890
:10181000086340484863404888630846C06B3F49B6
:10182000A94308433549C863FF20A930FFF772FA7E
:10183000FF20AA3000F088FD3F21084600F0EAFCB6
:101840000721084600F016FD0021084600F082FC42
:101850000021084600F0AEFC0020FFF75BFA0120F3
:10186000FFF758FA6020FFF755FAFF201030FFF716
:1018700051FAFF20EC30FFF74DFA6420FFF74AFAE7
:101880006520FFF747FA6620FFF744FA612000F071
:101890005BFD002022490860224823490860672038
:1018A00000F052FD0B260227F002F90108431F4900
:1018B0000860052000901E4900980860FF200E3047
:1018C000FFF728FAFF200F30FFF724FA002000F07E
:1018D000EBFBF02000F038FD5D20C00000F034FD8F
:1018E000144800F031FD1348401C00F02DFD01208C
:1018F00011490860F8BD00000000FCFF280400202A
:10190000E0FF5040882142003100048881403B11B3
:1019100002817E024448ED0300000160032EE0FFD7
:10192000000038520FA0000000003C5200000C5292
:1019300000002452E90200000000405200B57D2062
:10194000C00000F001FD0C4800F0FEFC0A48401CFD
:1019500000F0FAFC0848801C00F0F6FC80200749E3
:1019600008607F2000F0AEFC3F2000F0DBFC00218F
:101970007F2000F0C3FC00BDE903000000002C52F2
:10198000FEB5012080070469C569FFF70DFA00F074
:10199000EBFA064602202040002803D10820204010
:1019A00000281FD002202040002805D00220410737
:1019B000886108213148017208202040002805D0A4
:1019C0000820C10688610B212C4801722C48006850
:1019D000002807D02A48016830468847FFF7DAF91F
:1019E0000120FEBD04202040002803D1102020400B
:1019F000002832D004202040002802D00420010713
:101A0000886110202040002816D0102081068861AF
:101A100000F042F901901B48007800901A480088B5
:101A200007B208202840002803D000211348817203
:101A300002E00121114881720C2110480172104806
:101A40004068002807D00E48416830468847FFF7B5
:101A5000A1F90120C5E700BFFEE7E007C00F00289D
:101A600002D0012081078861002D02D0012080076B
:101A70004562FFF78FF90020B3E70000C0010020A6
:101A8000C000002000005452000064520120800772
:101A900000681021884389060860704710B5092145
:101AA0000B48017218200B49086001200A490860A0
:101AB00007487838412109064861102081060860EE
:101AC000FFF77CF9FFF744FB0A210148017210BDC2
:101AD000C0010020000028520000405201204003B5
:101AE000044908600520C00208600420010708605E
:101AF0007047000000001052014948607047000024
:101B0000C000002070B505460C4602210C48017249
:101B10000B214172012C02D0022C0AD104E00849A9
:101B2000487A00F043FA05E00549487A00F020FAC7
:101B300000E000BF00BF03210148017270BD00003A
:101B4000C00100200149086070470000C00000206B
:101B500070B52448056824480668300440192349B4
:101B600009688900224A505020480068401C1F49DB
:101B7000086020480068202108431E490860084684
:101B800000681D4908601B480068202188431949E6
:101B900008600846006818490860144800680A2868
:101BA0001ED1012406E0A000114A115813A0FEF72F
:101BB00075FB641C0A2CF6D3FF2001301149086024
:101BC000400010498039086000200849086000245E
:101BD00000E0641C0C488442FBD30C480C49C860EC
:101BE00070BD000000004452000048520400002074
:101BF000500200201000002000000C5225580D0A51
:101C00000000000080E100E0102700000400FA0559
:101C100000ED00E010B5184A126860231A43164B15
:101C20001A601A461268154B1A60134A126860232C
:101C30009A43114B1A601A461268104B1A6001221F
:101C400052020F4B1A6052100D4B80331A60520033
:101C50000C4B1A600C4A10680C4A11680A041218DE
:101C60000B4B1B689B000B4CE250094A1268521C3C
:101C7000074B1A6010BD00001000002000000C523D
:101C800000E100E080E200E0000044520000485221
:101C9000040000205002002006480068012189024B
:101CA0000840002804D0034800888005800D704754
:101CB0000020FCE700004052014800787047000017
:101CC00000005452024800780007000F70470000DF
:101CD00000003C521349014049004208114B1A4090
:101CE0001143084610490140890082080E4B1A40F2
:101CF000114308460D490140090102090B4B1A40E6
:101D0000114308460106FF2212020240120211434B
:101D1000020AFF231B021A401143020E1143084618
:101D20007047000055555555333333330F0F0F0FA0
:101D30000148006B70470000A80400200148C06AF9
:101D400070470000A80400200148006C70470000A4
:101D5000A80400200148406C70470000A80400203F
:101D60000148806C70470000A80400200148406BC7
:101D700070470000A80400200148806B70470000F5
:101D8000A80400200148C06B70470000A804002090
:101D900010B5CC210C48FEF786FB11210A48803093
:101DA000C16203210163152141630F218163C16376
:101DB00006490164162141641221816414220449F8
:101DC0001830FEF7BBF910BD28040020006A180087
:101DD000842400000149086370470000A804002023
:101DE0000149C86270470000A80400200149486406
:101DF00070470000A8040020014988647047000073
:101E0000A80400200149486370470000A80400208E
:101E10000149886370470000A80400200149C86395
:101E200070470000A80400200648002101604160BE
:101E30008160C160481E2121490688600720086032
:101E400070470000F803002010B5FEF7ADFF4448CE
:101E5000046B0420204000280BD1082020400028DB
:101E600007D110202040002803D120202040002846
:101E700029D03C48406800286BD00420204000282E
:101E800003D004203649486316E00820204000288B
:101E900003D00820324948630EE01020204000287B
:101EA00003D010202E49486306E02020204000285F
:101EB00002D020202A4948632A4948688047FEF713
:101EC00069FF012010BDE007C00F002813D025488E
:101ED000006800283DD00020224908730868804728
:101EE0002048007B002802D101201D494863FEF7ED
:101EF00051FF0120E6E7FF2001302040002804D0F8
:101F0000FF200130164948631FE0012040022040B5
:101F1000002804D0012040021149486315E0012047
:101F200080022040002804D0012080020C49486330
:101F30000BE00120C0022040002804D00120C00294
:101F40000749486301E006484463FEF723FF012088
:101F5000B8E7FEF71FFF0120014948630020B1E701
:101F600040000042F80300202120400640687047EE
:101F7000F8B5044620460B3840000B49085A400487
:101F8000C50E20460B384000085A8005C60E204674
:101F90000B384000085CC706FF0E3A46314628461B
:101FA000FEF7EEFCF8BD00004C000020F8B504463A
:101FB00020460B3840000B49085A4004C50E204605
:101FC0000B384000085A8005C60E20460B384000EA
:101FD000085CC706FF0E3A4631462846FEF7D0FC9D
:101FE000F8BD00006C000020F0B585B006460C4638
:101FF00015461F4620488661183044608560C760DA
:102000001D4918310A9808611B4880681B4908401F
:1020100003463046FEF777FF0006C00E04902046C8
:10202000FEF771FF0006C00E03902846FEF76BFF17
:102030000006C00E02903846FEF765FF0006C00E8F
:1020400001900A98FEF75FFF0006C00E009004980A
:1020500080060343039840050343029800040343AA
:102060000198C002034300988001034320200343EA
:102070000148836005B0F0BDA80400201F00008067
:1020800010B50A467F2383435901064B9B6F7F247B
:102090006403A343034CA36723469B6F0B43A367CF
:1020A00010BD00002804002030B50546002411E0D2
:1020B00028462041C007C00F002805D02046FF3029
:1020C000ED3000F041F904E02046FF30ED30FEF73E
:1020D00021FE641C062CEBD930BD0000F0B505468E
:1020E0000E461746002411E028462041C007C00FC5
:1020F000002805D0FF21B031081B00F025F904E0CD
:10210000FF21B031081BFEF705FE641C042CEBD93F
:10211000002411E030462041C007C00F002805D040
:10212000FF21B631081B00F00FF904E0FF21B631A2
:10213000081BFEF7EFFD641C042CEBD9012F03D123
:10214000034800F001F902E00148FEF7E3FDF0BDAD
:10215000D602000070B505460E46002411E0304658
:10216000E040C007C00F002805D02046FF30C53032
:1021700000F0EAF804E02046FF30C530FEF7CAFD63
:10218000641C042CEBDD002411E02846E040C0076D
:10219000C00F002805D02046FF30CA3000F0D4F828
:1021A00004E02046FF30CA30FEF7B4FD641C042C66
:1021B000EBDD70BD70B505460E46002411E03046DB
:1021C000E040C007C00F002805D0FF215931081B8F
:1021D00000F0BAF804E0FF215931081BFEF79AFD20
:1021E000641C042CEBDD002411E02846E040C0070D
:1021F000C00F002805D0FF215431081B00F0A4F8BF
:1022000004E0FF215431081BFEF784FD641C042CFC
:10221000EBDD70BD70B505460E46002411E0284682
:10222000E040C007C00F002805D02046FF30E63050
:1022300000F08AF804E02046FF30E630FEF76AFD41
:10224000641C042CEBDD002411E03046E040C007A4
:10225000C00F002805D0FF211631081B00F074F8CC
:1022600004E0FF211631081BFEF754FD641C052C09
:10227000EBDD70BD70B505460E4600240AE0204631
:10228000FF30D930FEF746FD2046FF301730FEF70D
:1022900041FD641C0D2CF2DB002405E0FF21E5313B
:1022A000081B00F051F8641CAC42F7D9002405E08B
:1022B0002046FF301730FEF72DFD641CB442F7D9DD
:1022C00070BD000010B5F0230340190902070A4B46
:1022D0009B6F1B091B01084CA36723469B6F0B4395
:1022E000A3672346DB6F1B011B09E3672346DB6FF4
:1022F0001343E36710BD00002804002010B50A4610
:102300007F2383435901054B9B6F054C2340034CAE
:10231000A36723469B6F0B43A36710BD28040020CF
:1023200017F0FFFF7F2282435103064A926F7F23FB
:102330005B039A43034B9A671A46926F0A439A6764
:10234000704700002804002010B541098A00064BA0
:102350009A584B01C41A0123DB07E3401A438B0050
:10236000014CE25010BD00002804002070B5054665
:102370000E4600240FE03046E040C007C00F0028A2
:1023800004D023496018FFF7DFFF03E020496018FD
:10239000FEF7C0FC641C032CEDDDF006C00F002826
:1023A00004D01B48001DFEF7B5FC03E01848001DD3
:1023B000FFF7CAFF002411E02846E040C007C00F25
:1023C000002805D0D72189006018FFF7BDFF04E081
:1023D000D72189006018FEF79DFC641C012CEBDD01
:1023E000022411E02846E040C007C00F002805D0B5
:1023F0000749C91C6018FEF78DFC04E00449C91C9C
:102400006018FFF7A1FF641C042CEBDD70BD000019
:10241000660300000248002101604160816070474E
:10242000B4000020512109060870704710B5044817
:102430004068002802D0024948688047002010BD4B
:10244000B4000020683D756362005343754D33430B
:1024500000436F727465784D30005343754D000032
:102460001122334455667700683D7563620053431B
:10247000754D334300436F727465784D300053439C
:10248000754D00001F0000001F0000001D0000002F
:1024900002000000020000006B046D046F04710470
:1024A0007404760478047A045B045D045F046104B8
:1024B0006404660468046A046C046E0470047204A4
:1024C00073047504770479045C045E046004620498
:1024D00063046504670469043031323334353637B8
:1024E0003839414243444546403058003031323358
:1024F0003435363738396162636465664030780058
:10250000202500000000002094000000C40000000E
:10251000B425000094000020CC100000E000000072
:1025200000000000000000000000000000000000AB
:10253000000000000410254057605740251004009B
:10254000F4010000F4010000F4010000F4010000B7
:10255000F4010000F4010000F4010000F4010000A7
:10256000F4010000F401000000000000E65EEE61EE
:10257000B162FC64EE65AE668867D369AA6A396B9E
:10258000CD6D5C6E326F96716B721073B55A2D62A1
:1025900095643E65476609675869436AC06C656D16
:1025A000F96DCC6E2F71BD71C0720D7500000051B8
:0425B00000000051D6
:0400000500000000F7
:00000001FF
